:020000040800F2
:1000000060130024BD0300080D08000875060008F1
:10001000090800084104000835120008000000002B
:100020000000000000000000000000006D0C00084F
:1000300045040008000000006B0C0008CD0C00080F
:10004000E9030008E9030008E9030008E9030008E0
:10005000E9030008E9030008E9030008E9030008D0
:10006000E9030008E9030008E9030008E9030008C0
:10007000E9030008E9030008E9030008E9030008B0
:10008000E9030008E9030008E90300080000000094
:10009000000000000000000000000000E90300086C
:1000A000E9030008E9030008E9030008E903000880
:1000B000E9030008E9030008E9030008E903000870
:1000C000E9030008E9030008E9030008E903000860
:1000D000E9030008E9030008E9030008E903000850
:1000E000E9030008E903000800000000E903000834
:1000F000E9030008E9030008E9030008E903000830
:10010000E9030008E9030008E9030008E90300081F
:10011000310F0008E9030008E9030008E9030008BB
:10012000E9030008E9030008E9030008E9030008FF
:10013000E9030008E9030008E903000800000000E3
:1001400000000000000000000000000000000000AF
:10015000E9030008E9030008E9030008E9030008CF
:10016000E9030008E9030008E9030008E9030008BF
:10017000E9030008E9030008E9030008E9030008AF
:10018000E9030008E9030008E9030008E90300089F
:10019000E9030008E9030008E9030008E90300088F
:1001A000E9030008E9030008E9030008E90300087F
:1001B000E90300080000000000000000E903000857
:1001C000E9030008E9030008000000000000000047
:1001D0000000000000000000E9030008000000002B
:1001E000000000000000000000000000000000000F
:1001F0000000000000000000E9030008E903000817
:10020000E9030008E9030008E90300080000000012
:10021000E9030008E9030008E90300080000000002
:10022000E903000800000000E903000800000000E6
:10023000E9030008E903000800000000E9030008E2
:1002400000000000000000000000000000000000AE
:10025000000000000000000000000000000000009E
:1002600000000000E903000800000000000000009A
:10027000000000000000000000000000000000007E
:10028000E9030008E9030008000000000000000086
:100290000000000000000000E9030008E903000876
:1002A000E9030008E9030008E90300080000000072
:1002B000000000000000000000000000000000003E
:1002C00000000000E9030008E9030008E903000852
:1002D000E9030008E9030008E9030008E90300084E
:1002E000E9030008E9030008E9030008E90300083E
:1002F000E9030008E9030008E9030008E90300082E
:10030000E9030008E903000800000000E903000811
:10031000E9030008E9030008E9030008E90300080D
:10032000E9030008E9030008E9030008E9030008FD
:10033000E9030008E9030008E9030008E9030008ED
:10034000E9030008E9030008E9030008E9030008DD
:10035000E9030008E9030008E9030008E9030008CD
:10036000E9030008E9030008E9030008E9030008BD
:10037000E9030008E9030008E9030008E9030008AD
:10038000E9030008E9030008E9030008E90300089D
:10039000E9030008E9030008E9030008E90300088D
:1003A000E9030008DFF810D000F038F800480047F3
:1003B0001D170008AFF30080601300240B4800F500
:1003C00000414FF00002E0E802228842FBD10848D9
:1003D000804708480047FEE7FEE7FEE7FEE7FEE746
:1003E000FEE7FEE7FEE7FEE7FEE700000000002470
:1003F000D50C0008A503000840EA01039B0703D0C1
:1004000009E008C9121F08C0042AFAD203E011F853
:10041000013B00F8013B521EF9D27047064C074DD4
:1004200006E0E06840F0010394E8070098471034C4
:10043000AC42F6D3FFF7BAFFA04E0008C04E00084A
:1004400000BFFEE7704770472DE9FC4700F068FFEA
:1004500001278048027880480178804800F0C4FE77
:1004600000F06AFF08B9BDE8FC8700F0E7FF04462A
:1004700001250026794A2946204600F099FDE8E04A
:1004800001F028F801F0C6F98046B8F1010F13D148
:10049000204601F04BF98146A1450CD0A2464C46BE
:1004A0006E4A0021504600F083FD6C4A29462046E2
:1004B00000F07EFD00BFB7E0B8F1020F13D1204677
:1004C00001F05AF98146A1450CD0A2464C46634A38
:1004D0000021504600F06CFD604A2946204600F09D
:1004E00067FD00BFA0E0B8F1030FE4D15B48005DF9
:1004F0000028E0D1019059480755024600212046C6
:1005000000F056FD01F030F801A800F0B3FF81467D
:10051000B9F1000F26D0B9F1010F09D14E4800788A
:1005200063280ED24C480078401C4B49087008E004
:1005300048480078632804D246480078401C454962
:1005400008704448027844480178444800F04CFE62
:100550009DF8040000F0E4FD4846FFF774FF00F04A
:10056000E7FF80E700F0E8FE28B90020FFF76BFF07
:1005700000F0DEFF77E7012F01D1022000E001202B
:100580000746022F45D1354800F086FE044602207A
:10059000324908550A460021204600F009FD00F0C6
:1005A000E3FF00200090684600F064FF8246BAF145
:1005B000000F19D027480078632804D22548007816
:1005C000401C2449087023480278234801782348B6
:1005D00000F00AFE9DF8000000F0A2FD5046FFF773
:1005E00032FF00F0A5FF3EE700F0A6FE28B900208C
:1005F000FFF729FF00F09CFF35E7012700F01EFF01
:10060000044601250026154A2946204600F0D0FC64
:1006100009E000F013FF0446012500260F4A294691
:10062000204600F0C5FC00BF322000F0F1FE06F1CC
:10063000320086B2B6F5FA7F0AD300260DB9012042
:1006400000E000200546054A2946204600F0B0FC9F
:1006500000BF15E7120000241100002454030024F9
:1006600001F0B0F800F0A2F800F00EFE01E0FFF794
:10067000EBFEFCE700BFFEE710B54FF4005301228C
:100680001146124800F0BFFF4FF40053032201212E
:100690000E4800F0DFFF4FF400510C4800F0A9FFB6
:1006A0004FF48051094800F0A4FF00F071F84FF4B6
:1006B0000051064800F09BFF00F06AF84FF48051AB
:1006C000024800F094FF00F063F810BD000C0258DF
:1006D00010B54FF40053012211460E4800F093FF6D
:1006E0004FF40053032201210A4800F0B3FF4FF4F6
:1006F0000051084800F07BFF4FF48051054800F09E
:1007000078FF00F045F84FF40051024800F071FF07
:1007100010BD0000000C025810B54FF400511B48EA
:1007200000F067FF00F034F84FF48051174800F0F4
:1007300060FF00F02DF84FF4005301220021134810
:1007400000F061FF05E0601CC4B2FE2C01DDFFF784
:10075000BFFF4FF400510D4800F04DFF0028F2D1CB
:100760004FF48051094800F042FF00F011F84FF4B7
:10077000005301221146054800F045FF4FF4005395
:1007800003220121014800F065FF10BD000C025852
:1007900008B54FF49670009000BFBDF80000411EF0
:1007A00089B200910028F8D108BD000010B540F6CC
:1007B000047001F0DDFD40F6077001F0D9FD24233F
:1007C000002201210E4800F01EFF242301220021F7
:1007D0000B4800F03FFF2421094800F00AFF802366
:1007E00000220121074800F00EFF80230122002192
:1007F000044800F02FFF8021024800F0FAFE10BDEF
:1008000000100258001C025800BFFEE770470000AD
:1008100070B500240CE0002506E00020074901EB3C
:1008200085010855681CC5B2802DF6DB601CC4B27A
:10083000042CF0DB00F0FEF870BD00001400002472
:1008400070B50B46CE1701EB5676C6F3C702CE172E
:1008500001EB5676F610A1EBC606F4B20123A340D5
:10086000DDB20E4B03EB80039B5CDB430B4E06EBD0
:100870008006B354094B03EB80039B5C2B43074E6C
:1008800006EB8006B354054B03EB80039B5CDB4314
:10089000024E06EB8006B35470BD00001400002425
:1008A00070B50A46CE1701EB5676C6F3C703CE17CE
:1008B00001EB5676F610A1EBC606F4B20122A24077
:1008C000D5B2054A02EB8002D25C2A43024E06EB07
:1008D0008006F25470BD00001400002410B540F6EC
:1008E000037001F045FD4FF48053012211464A4840
:1008F00000F089FE4FF4805303220121464800F0A6
:10090000A9FE4FF48051444800F073FE4FF40053A9
:1009100001221146404800F076FE4FF400530322B6
:1009200001213D4800F096FE4FF400513A4800F096
:1009300060FE0021AE2000F07CF90021084600F0A6
:1009400078F90021102000F074F90021402000F017
:1009500070F90021812000F06CF90021CF2000F017
:1009600068F90021A12000F064F90021C82000F0FE
:1009700060F90021A62000F05CF90021A82000F019
:1009800058F900211F2000F054F90021D32000F075
:1009900050F90021084600F04CF90021D52000F064
:1009A00048F90021802000F044F90021D92000F00E
:1009B00040F90021F12000F03CF90021DA2000F09C
:1009C00038F90021084600F034F90021DB2000F05E
:1009D00030F90021402000F02CF90021202000F007
:1009E00028F90021022000F024F900218D2000F0D8
:1009F00020F90021142000F01CF90021A42000F0AF
:100A000018F90021A62000F014F90021AF2000F011
:100A100010F9FFF7FDFE10BD000C025810B502469C
:100A2000012000E050430B1EA1F10104E1B2F9D115
:100A300010BD000070B500241CE004F1B001C8B284
:100A4000002100F0F6F80021084600F0F2F800213D
:100A5000102000F0EEF8002508E0084901EB8501C0
:100A6000085D012100F0E5F8681CC5B2802DF4DBBB
:100A7000601CC4B2042CE0DB70BD00001400002434
:100A80002DE9FF4F81B080460E461C460096204659
:100A9000E31704EB5373DB1021464FEAE47C04EBCD
:100AA0005C7C4FEAEC0CA4EBCC0CBCF1000F02D048
:100AB0004FF0010C01E04FF0000C6344224604EBC0
:100AC000D27C4FEA6C0C03FB0CF303F0FF0B039892
:100AD0002038C7B2002547E00C2C07D107EB4700B0
:100AE000234901EB800010F805A014E0102C05D17B
:100AF000204800EB071010F805A00CE0182C07D1D7
:100B000007EBC7001C4901EB800010F805A002E0CC
:100B100005B0BDE8F08F4FF000091FE00AF080003B
:100B200020B131464046FFF7BBFE03E03146404668
:100B3000FFF786FE4FEA4A604FEA106A701CC6B2A1
:100B40000098301AA04205D1009E08F1010000F083
:100B5000FF0806E009F1010000F0FF09B9F1080FF4
:100B6000DCDB00BF681CC5B25D45B5DB00BFCFE76D
:100B700094360008083B0008F84000082DE9F04FC3
:100B800006468A4691461F46099C00252CE0781BA4
:100B9000401EC1B20A20FFF741FFB9FBF0F00A2165
:100BA000B0FBF1F201FB1208B8F1000F0CD1A34623
:100BB00004EBDB71491001FB0561C8B2234630220A
:100BC0005146FFF75DFF0DE0A34604EBDB714910D2
:100BD00001FB0561C8B208F13001CAB22346514693
:100BE000FFF74EFF681CC5B2BD42D0DBBDE8F08FF9
:100BF000F0B506460F4614461D4613E022782B46F4
:100C000039463046FFF73CFF284605EBD07106EB2E
:100C10006101CEB2C5F18000B04202DA0026B81CF4
:100C2000C7B2641C2078202802DB20787E28E5DD0E
:100C3000F0BD70B505460C46FFF71EFD782000F0AC
:100C400017F8FFF769FD1CB1402000F011F802E031
:100C5000002000F00DF8FFF75FFD284600F008F8CF
:100C6000FFF75AFDFFF734FD70BD70477047000075
:100C700070B50446002524E04FF48051124800F07E
:100C8000B6FC04F0800028B14FF400510E4800F08B
:100C9000B0FC04E04FF400510B4800F0A8FCFFF753
:100CA00077FD4FF48051084800F0A3FCFFF770FD7A
:100CB0004FF48051044800F09AFC6006040E681C52
:100CC000C5B2082DD8DB70BD000C025810B500F07D
:100CD000A9FB10BD10B58248006840F4700080493F
:100CE000086000BF7E4B743B1B6803F4803303B184
:100CF00031E000237A4C241F2360BFF34F8F231F62
:100D00001868C0F34E3100BFC0F3C90200BF43F6FC
:100D1000E07303EA41134FF0404404EA8274234332
:100D2000704C236000BF00BF131EA2F10102EED180
:100D30000B1EA1F10101E7D1BFF34F8F684B743B4C
:100D40001B6843F48033664C743C2360BFF34F8FC1
:100D5000BFF36F8F00BF00BF0023614C241F2360CF
:100D6000BFF34F8F5E4B743B1B6823F480335C4CA6
:100D7000743C2360BFF34F8F594B083B1868C0F396
:100D80004E3100BF00BFC0F3C90200BF43F6E0739D
:100D900003EA41134FF0404404EA82742343514C68
:100DA0001434236000BF00BF131EA2F10102EDD175
:100DB0000B1EA1F10101E6D1BFF34F8FBFF36F8F7F
:100DC00000BF4948006840F080404749086000BFC4
:100DD0004548006800F000400028F9D042484C30F7
:100DE000006840F0010040494C3108603F4800680D
:100DF00020F001003D4908603B480830006820F0C1
:100E0000030039490831086037480068384908400C
:100E1000354908603448C4300068364908403249D2
:100E2000C4310860304808300068334908402E4912
:100E3000083108602C488C300068304908402A4945
:100E40008C310860081D00682D4908402649903102
:100E50000860081D00682B49084023499431086048
:100E60002148D030006840F2013188431E49D0311A
:100E700008601D48F0300068234908401A49F031E5
:100E80000860224818490C3108604FF4E000164908
:100E9000CC3108601E481449091D08601D481249DC
:100EA00084310860091D086000200F4998310860EE
:100EB00019480D498031086000200B49D83108607D
:100EC00009499C310860091D0860091D086001F08E
:100ED00051FB00214FF0006000F0D2FD10BD00007A
:100EE00088ED00E060EF00E000440258680400581C
:100EF000FFFFF2EAFEFFFFAF0C03C000CC3F007E15
:100F000080808888C0EFFFC3888888FF0000FF14B6
:100F100020200001202001010101010010B500F096
:100F20001BFA01F02BFBFFF7D9FC00F0DBFC10BD36
:100F300010B51749174801F051FF58B1154801F095
:100F400099FEC1B2144802780078401C124B187008
:100F50001248815412490F4801F040FFB0B11049C6
:100F60000C4801F00DFF0C48007878B10A4802786F
:100F70000A490C48FFF740FA074800780A49087008
:100F800000200549087001200849087010BD0000C4
:100F900005000507004C004007000024540200240F
:100FA00004000407D40200240800002409000024DF
:100FB0002DE9F74F84B08046914602AA03A9404626
:100FC00001F00CFB9DF80C00461E9DF80C00471C20
:100FD0009DF80800441E9DF80800451C002E00DA0C
:100FE00000267F2F00DD7F27002C00DA00241F2D34
:100FF00000DD1F252046E11704EB5171C1F3C70145
:1010000001912846E91705EB5171C1F3C701009121
:101010000598E0B1B24611E0A34609E00BF0FF01EC
:101020000AF0FF00FFF73CFC0BF101000FFA80FB18
:10103000AB45F3DD0AF101000FFA80FABA45EBDDAA
:10104000F9B2F0B2DDE9003201F04EFD49E0EBB259
:10105000FAB2E1B2F0B201F009FB19F8080040B3AE
:1010600019F80810404600F03FF89DF80C00C01E2B
:10107000002801D5002602E09DF80C00C61E9DF850
:101080000C00C01C7F2801DD7F2702E09DF80C00CA
:10109000C71C9DF80800C01E002801D5002402E0EE
:1010A0009DF80800C41E9DF80800C01C1F2801DD23
:1010B0001F2502E09DF80800C51C2046E11704EB3F
:1010C0005171C1F3C70101912846E91705EB517130
:1010D000C1F3C7010091F9B2F0B2DDE9003201F0CD
:1010E00003FD07B0BDE8F08F7CB505460C466A46A7
:1010F00001A9284601F072FA012C07D103229DF8BC
:1011000000109DF8040001F044FB08E0022C06D119
:1011100003229DF800109DF8040001F01BFB7CBD2C
:1011200010B590B00446072C01DD10B010BD07A823
:1011300008A909AA0AABCDE90232CDE904100BA82F
:101140000CA90DAB0EAACDE900100FA9204601F0A5
:1011500035FC002000900190BDF83000BDF81C2047
:10116000104403B2BDF83800104401B2BDF9342078
:10117000BDF93C0001F0A4FBBDF92000BDF924102D
:10118000CDE90010BDF83000BDF81C20104403B2BA
:10119000BDF83800104401B2BDF93420BDF93C005F
:1011A00001F08EFBBDF82000404200B2BDF82410D3
:1011B000494209B2CDE90010BDF83000BDF81C204D
:1011C000104403B2BDF83800104401B2BDF9342018
:1011D000BDF93C0001F074FB0323002256212820B6
:1011E00001F082FC00BFA0E72DE9F04105460E4664
:1011F0001746FFF70DFB3946304601F09BFB01F027
:1012000071FA002410E0285D012804D10121204654
:10121000FFF76AFF06E0285D022803D1022120467D
:10122000FFF762FF601CC4B2092CECDBFFF702FC85
:10123000BDE8F08100BFFEE710B5FFF711FA10BD61
:1012400010B5002804DB0A07130E054A135406E004
:101250000A07140E034A00F00F031B1FD45410BDDD
:1012600000E400E018ED00E002E008C8121F08C129
:10127000002AFAD170477047002001E001C1121F17
:10128000002AFBD1704700000120024908700020AD
:1012900070470000100000243EB505461F48007846
:1012A00018B9284600F0F8FB3EBD28680090686831
:1012B0000190287A8DF80800002412E0285D00B122
:1012C0000DE002200DF804000221684600F0E4F968
:1012D00008B12046E8E700200DF8040000BF601CBC
:1012E000C4B2092CEADB002412E0285D00B10DE055
:1012F00001200DF804000121684600F0CDF908B185
:101300002046D1E700200DF8040000BF601CC4B2E5
:10131000092CEADB284600F0BFFBC5E710000024DB
:10132000002004E00021034A1154411CC8B20928DE
:10133000F8DB704754030024002106E00548405CB8
:1013400008B901207047481CC1B20929F6DB00200A
:10135000F8E700005403002410B500BF2A480068D5
:1013600000F4003000B115E0BFF34F8FBFF36F8F73
:10137000002026490860BFF34F8FBFF36F8F2248CC
:10138000006840F4003020490860BFF34F8FBFF37E
:101390006F8F00BF00BF1C4B1B6803F4803303B189
:1013A00030E00023184C70342360BFF34F8F231FAD
:1013B0001868C0F34E3100BFC0F3C90200BF43F646
:1013C000E07303EA41134FF0404404EA827423437C
:1013D0000E4C1034236000BF00BF131EA2F10102A7
:1013E000EDD10B1EA1F10101E6D1BFF34F8F064BEA
:1013F0001B6843F48033044C2360BFF34F8FBFF36B
:101400006F8F00BF10BD000014ED00E050EF00E052
:101410000349086000BF024909680029FBD17047F1
:10142000000000240448006820B103480068401E02
:101430000149086070470000000000240EB509A2B1
:1014400007CA8DE80700002107E01DF80100084ADF
:10145000125C02B90EBD481CC1B20929F5DB00209F
:10146000F8E7000004050703010208060000000079
:101470005403002470B50346002120E001EB410035
:10148000124E325C01EB41003044447801EB4100E4
:10149000304485780E48805C78B10D48805C0C4EF5
:1014A000365DB04209D10A48805C094E765DB04293
:1014B00003D119700648805C70BD481CC1B2082970
:1014C000DCDB0020187000BFF6E70000754E000856
:1014D0005403002410B500F0E3F9044604F00100C1
:1014E00020B10421104800F082F803E004210E48E6
:1014F00000F07FF804F0020020B120210A4800F03B
:1015000076F803E02021084800F073F804F00400A6
:1015100020B18021054800F06AF803E080210348EB
:1015200000F067F810BD000000100258001C0258BF
:1015300010B504E0FFF7CEFF0A20FFF769FF00F0C7
:10154000AFF900F004000028F4D10BE0FFF7C2FF70
:1015500000F060F9032802D100F006F810BD0A205F
:10156000FFF756FFF2E7000010B504E0FFF7B2FF07
:101570000A20FFF74DFF00F093F900F00400002867
:10158000F4D18021014800F034F810BD001C02584D
:10159000F0B503461C6A5D6A00200DE00126864016
:1015A00016403EB187000F26BE40B443860001FAC4
:1015B00006F63443461CB0B20828EFD3082011E0E9
:1015C0000126864016405EB1A0F10806B7000F263E
:1015D000BE40B543A0F10806B60001FA06F6354351
:1015E000461CB0B21028EBD31C625D62F0BD816274
:1015F00070478161704702461069084008B10120B8
:1016000070470020FCE7F0B504460D4616462168F9
:10161000E268002019E0012787401F409FB14FEA90
:10162000400C032707FA0CF7B943470005FA07F700
:1016300039434FEA400C032707FA0CF7BA43470037
:1016400006FA07F73A43471CB8B21028E3D32160E3
:10165000E260F0BDF0B50C461546012C03D146689A
:101660001E43466002E046689E4346608268002151
:101670000DE001268E401E403EB14F000326BE40C5
:10168000B2434E0005FA06F632434E1CB1B21029A1
:10169000EFD38260F0BD0000F0B502460B4600219A
:1016A00018E001EB41000D4F3C5C01EB4100384478
:1016B000457801EB410038448678105D984207D1A7
:1016C000505D984204D1905D984201D10120F0BD57
:1016D000481CC1B20829E4DB0020F8E7544E00089A
:1016E00070B504460D4629462046FFF784FF0128C1
:1016F00000D170BD0020FCE770B504460D462946B8
:101700002046FFF7EDFF08B9002070BD1420FFF759
:101710007FFE29462046FFF7E3FFF6E710B5FFF707
:10172000FDFBFFF789FD002010BD0000F0B501466C
:10173000032091FBF0F500FB1510C3B2032091FBD1
:10174000F0F0C2B20C4600BF551C032695FBF6F71D
:1017500006FB1755EAB202EB42051D44E8B2054DFF
:101760002D5C05B9F0BD02EB42001844A042EBD15C
:101770000846F7E754030024F0B50146032091FB27
:10178000F0F500FB1510C2B2032091FBF0F0C3B2DC
:101790000C4600BF551C032695FBF6F706FB1755B4
:1017A000EAB203EB43051544E8B2054D2D5C05B9DB
:1017B000F0BD03EB43001044A042EBD10846F7E72D
:1017C0005403002410B540F6027000F0D1FD40F63D
:1017D000067000F0CDFD40F6017000F0C9FD4FF439
:1017E0000053022200210848FFF70DFF08230222C0
:1017F00000210648FFF707FF4FF480530222002123
:101800000348FFF700FF10BD0008025800180258F7
:101810000004025870B54FF400511B48FFF76CFFED
:10182000044608211948FFF767FF05464FF4805129
:101830001748FFF761FF06461CB9002015490870DC
:1018400006E01448007818B901201249087070BDEC
:101850001DB900201049087007E00F48007820B932
:1018600001200D4908700220F1E71EB900200B4944
:10187000087007E00948007820B90120074908707E
:101880000320E4E70020E2E70008025800180258AD
:10189000000402580400002405000024060000246F
:1018A00010B500244FF400510B48FFF719FF08B1A1
:1018B00044F0010408210948FFF712FF08B144F081
:1018C00002044FF480510648FFF70AFF08B144F0C4
:1018D0000404204610BD00000008025800180258F9
:1018E0000004025810B54FF4407000F0BFF8002219
:1018F0000321342000F062F841F2130000F038FDBB
:101900004FF4706000F034FD012208212748FFF7F2
:101910003FFE0123002202212448FFF774FE012329
:10192000032200212148FFF795FE022208211F48CB
:10193000FFF72EFE0223002219461C48FFF763FE24
:101940000223032200211948FFF784FE184801F002
:1019500097F90021164801F085FA0021144801F09A
:101960006DFA0021124801F055FA4FF4E1311048A8
:1019700001F00CF904210E4801F058FA08210C4836
:1019800001F068FA0A4801F0E9F90521084801F078
:10199000EAF90421064801F0E6F90649044801F095
:1019A000EFF90549024801F0EBF910BD00000258BB
:1019B000004C004005000507040004072DE9F04134
:1019C00003460D46164600240027A0462548006819
:1019D00000F4E060B0F5A06F15D006DCB0F5407FF4
:1019E00018D0B0F5806F19D110E0B0F5C06F06D0F7
:1019F000B0F5E06F12D100274FF0040815E0012781
:101A00004FF0030811E00227B8460EE003274FF01D
:101A100001080AE004274FF0000806E04FF4A06038
:101A200000F024F80227B84600BF00BFC7F1040049
:101A300005FA00F4C8F104010F20C8403040044307
:101A400024010948DAB2845403F01F0101208840C0
:101A5000C3F34211890001F1E021C1F80001BDE8A2
:101A6000F08100000CED00E000E400E002490143D9
:101A7000024A1160704700000000FA050CED00E01A
:101A8000034A0A400243034B1A60BFF34F8F70476B
:101A900080FFFF1F08ED00E00246002106E0054B35
:101AA000585C135C03B97047481CC1B20929F6DBC6
:101AB0000020F8E76C4E00082DE9F14FAEB0002091
:101AC0002C9000252B900D90FEA30FCB09AC0FC4DA
:101AD000FDA103C9CDE90701FBA103C9CDE90501BA
:101AE000F9A103C9CDE90301F7A103C9CDE90101BA
:101AF00000F010FC0546F7480068C0F381002D9007
:101B00002D9830B1012809D0022804D0032840D1F3
:101B100007E0A8463FE0DFF8C0833CE0DFF8BC8385
:101B200039E0EC48001F006800F03F001B90E948D6
:101B3000001F0068C0F38810401C1A90E548001F81
:101B40000068C0F30640401C1790E24894300068DB
:101B500000F4004028B1DF4894300068C0F30C0066
:101B60002B90DC489030006800F44034B4F5003F1E
:101B700001D1DA4E03E00CB92E4600E0D64E17989C
:101B8000009030462B9BDDE91A2100F027FC8046AF
:101B900001E0A84600BF00BFCE480068C0F30310B4
:101BA0000E9009A90E9811F800B028FA0BF7C94851
:101BB0000068C0F382200E9007A90E9811F800B0BB
:101BC00027FA0BF02A90C3480068C0F342300E9009
:101BD00005A90E9811F800B027FA0BF02990BD481E
:101BE0000068C0F3C2600E9003A90E9811F800B00F
:101BF00027FA0BF02890B7480068C0F302600E90F7
:101C000001A90E9811F800B027FA0BF027902E9832
:101C100017287DD2DFE800F00C0F1114171A1DA948
:101C200062FCFAF9F8F7F6F5F4F3F2F1F0EFEE00F2
:101C3000CDF8B08062E32C9760E32A982C905DE3A6
:101C400029982C905AE328982C9057E327982C90A9
:101C500054E3002026909F48001F006800F03F00DA
:101C60001B909C48001F0068C0F38810401C1A900D
:101C70009848001F0068C0F30640401C1790954824
:101C80009430006800F4004028B192489430006815
:101C9000C0F30C002B908F489030006800F4403463
:101CA000B4F5003F01D18D4E03E00CB92E4600E0A3
:101CB000894E1B9878B176B186487830006800F07C
:101CC000007040B11798009030462B9BDDE91A2137
:101CD00000F084FB269026982C900FE3002024909F
:101CE0007C48001F006800F03F001B907948001FEF
:101CF0000068C0F38810401C1A907648001F0068E6
:101D0000C0F30660401C159072489430006800E0F3
:101D1000F3E200F4004028B16E4894300068C0F34C
:101D20000C002B906B489030006800F44034B4F500
:101D3000003F01D1694E03E00CB92E4600E0664E2B
:101D40001B9878B176B163487830006800F08070F5
:101D500040B11598009030462B9BDDE91A2100F028
:101D60003DFB249024982C90C8E2002025905948EF
:101D7000001F006800F03F001B905648001F0068DD
:101D8000C0F38810401C1A9052487830006800F068
:101D90007F00401C16904F489430006800F40040CB
:101DA00028B14C4894300068C0F30C002B9049488F
:101DB0009030006800F44034B4F5003F01D1474E44
:101DC00003E00CB92E4600E0434E1B9878B176B183
:101DD00040487830006800F4000040B11698009048
:101DE00030462B9BDDE91A2100F0F8FA2590259862
:101DF0002C9083E27EE27AE277E245E219E2EDE1BD
:101E0000C5E1AEE123E167E1DCE046E097E0FFE712
:101E1000002023902F487C30006800F03F092D48B7
:101E20007C300068C0F38810401C199029487C3031
:101E30000068C0F30640401C1490264898300068A3
:101E400000F4004028B1234898300068C0F30C002B
:101E50002B9020489030006800F44034B4F5003FE7
:101E600001D11E4E03E00CB92E4600E01A4EB9F126
:101E7000000F0FD076B117487830006800F080501E
:101E800040B114980090494630462B9B199A00F0B7
:101E9000A5FA239023982C9030E2002021900D4841
:101EA0007C30006800F03F090A487C300068C0F3CD
:101EB0008810401C199007487C300068C0F3066009
:101EC000401C0DE0000000000000000001020304BF
:101ED000060708090844025800093D0040787D01C2
:101EE0001290F948006800F4004020B1F6480068FC
:101EF000C0F30C002B90F4480838006800F440341C
:101F0000B4F5003F01D1F14E03E00CB92E4600E0DC
:101F1000EF4EB9F1000F0FD076B1EB4820380068D2
:101F200000F0006040B112980090494630462B9B6B
:101F3000199A00F053FA219021982C90DEE10020AC
:101F40002290E1481C38006800F03F09DE481C3848
:101F50000068C0F38810401C1990DB4820380068E6
:101F6000C0F30620401C1390D748006800F40040DE
:101F700020B1D5480068C0F30C002B90D248083837
:101F8000006800F44034B4F5003F01D1CF4E03E0C7
:101F90000CB92E4600E0CE4EB9F1000F0FD076B14D
:101FA000C9482038006800F0806040B11398009064
:101FB000494630462B9B199A00F010FA229022983D
:101FC0002C909BE100202090BF481838006800F05A
:101FD0003F0ABD4818380068C0F38810401C1890AC
:101FE000B94818380068C0F30640401C1190B64844
:101FF000001D006800F4004028B1B348001D0068CF
:10200000C0F30C002B90B0480838006800F440344E
:10201000B4F5003F01D1AD4E03E00CB92E4600E00F
:10202000AB4EBAF1000F0FD076B1A7482038006848
:1020300000F0004040B111980090514630462B9B73
:10204000189A00F0CBF9209020982C9056E10020AF
:102050001E909D481838006800F03F0A9A481838CA
:102060000068C0F38810401C189097481838006822
:10207000C0F30660401C0F909348001D006800F4F8
:10208000004028B19048001D0068C0F30C002B9060
:102090008D480838006800F44034B4F5003F01D1A1
:1020A0008A4E03E00CB92E4600E0894EBAF1000FCB
:1020B0000FD076B184482038006800F0804040B1ED
:1020C0000F980090514630462B9B189A00F086F9E5
:1020D0001E901E982C9011E100201F907A4818380D
:1020E000006800F03F0A784818380068C0F388108C
:1020F000401C1890744820380068C0F30640401C0B
:1021000010907148001D006800F4004028B16E482E
:10211000001D0068C0F30C002B906B480838006865
:1021200000F44034B4F5003F01D1684E03E00CB92F
:102130002E4600E0664EBAF1000F0FD076B162482D
:102140002038006800F0005040B1109800905146CF
:1021500030462B9B189A00F041F91F901F982C9045
:10216000CCE059481438006800F440401C901C989A
:10217000B0F5004F02D155481D9005E01C9808B9F4
:102180001D9501E052481D901D982C90B6E04E48D8
:102190001438006800F0030010B929980D901AE077
:1021A00049481438006800F00300012801D10D9758
:1021B00011E045481438006800F00300022802D1FD
:1021C00080030D9007E040481438006800F00300D9
:1021D000032800D10D950D982C908FE03A481438C3
:1021E000006800F4402010B92A980D901EE036488F
:1021F0001438006800F44020B0F5802F01D10D970D
:1022000014E031481438006800F44020B0F5002F85
:1022100003D14FF400400D9008E02B4814380068BB
:1022200000F44020B0F5402F00D10D950D982C9072
:1022300064E025481438006800F4401010B92A986A
:102240000D901EE020481438006800F44010B0F5EE
:10225000801F01D10D9714E01B481438006800F46A
:102260004010B0F5001F03D14FF400400D9008E07E
:1022700015481438006800F44010B0F5401F00D134
:102280000D950D982C9039E00F481438006800F433
:10229000400010B929980D9024E00B4814380068CC
:1022A00000F44000B0F5800F01D10D971AE0064808
:1022B0001438006800F44000B0F5000F0AD14FF464
:1022C00000400D900EE00000A044025840787D01CF
:1022D00000093D000C48006800F44000B0F5400FD4
:1022E00000D10D950D982C9008E02C9506E007483C
:1022F0002C9003E006482C9000E000BF00BF2C9813
:102300002FB0BDE8F08F00008C44025840787D016A
:1023100000093D0000201149096801F4403109B964
:102320000F4819E00D49096801F44031B1F5803FCB
:1023300001D10C4810E00949096801F44031B1F5B8
:10234000003F01D1084807E00449096801F4403121
:10235000B1F5403F00D1054870470000C444025821
:102360000090D0030048E8010024F40000127A0035
:10237000074A02EB9011D1F8001400F01F0301226C
:102380009A401143024B03EB9012C2F800147047BD
:1023900000400258074A02EB9011D1F8001400F0F7
:1023A0001F0301229A409143024B03EB9012C2F8A3
:1023B0000014704700400258074A02EB9011D1F810
:1023C000001400F01F0301229A401143024B03EB5B
:1023D0009012C2F8001470470040025810B504462D
:1023E0009DED020A01EE104AB8EE412A01EE101AE4
:1023F000B8EE411AC2EE011A01EE103AB8EE411AD7
:10240000DFED0C2A81EE222A01EE102AB8EE411AE5
:1024100032EE011A21EE811AF0EE410AB8EE401AAE
:10242000C0EE811AF0EE610ABCEEE01A11EE100A5D
:1024300010BD00000000004600200021484A12683C
:1024400042F48032464B1A6000BF401C444A126876
:1024500002F4003119B94FF6FF729042F5D1404AAB
:10246000126802F400320AB900BFFEE73C4A4C325F
:10247000126842F001023A4B4C331A60394A126832
:1024800042F00102374B1A60354A0832126842F0B6
:102490008002334B08331A601A46126842F0806299
:1024A0001A601A46126842F000521A601A46126800
:1024B0001A601A46126842F480521A60284A98320A
:1024C0001268294B1A40264B98331A601A46126834
:1024D00042F002121A60224A121D1268234B1A405F
:1024E0001F4B1B1D1A601A461268214B1A431C4BC6
:1024F0001B1D1A601A4A8032126822F07F02184BA4
:1025000080331A601A46126842F001021A601A46B5
:10251000126842F060721A60114A126842F08072CA
:102520000F4B1A6000BF0E4A126802F00072002AB8
:10253000F9D00B4A0832126822F00302084B083324
:102540001A601A46126842F003021A6000BF044A79
:102550000832126802F00C020C2AF8D17047000011
:102560000044025868040058F8FFFCFF0080800017
:10257000C51D000110B5FFF75FFF10BD10B5124873
:1025800000684FF47A71B0FBF1F4601EB0F1807F07
:1025900001D301200FE0601E4FF0E02148610F21C0
:1025A0004FF0FF30FEF74CFE00204FF0E021886135
:1025B00007200861002008B100BFFEE70021481E87
:1025C000FEF73EFE10BD00000C000024014600296D
:1025D00002DA484240B270470846FCE72DE9FE4F58
:1025E0004FF0030B90FBFBFE0BFB1E0B0BF0FF03EE
:1025F0004FF0030B90FBFBFB0BF0FF042825372665
:1026000047274FF0560C4FF000084FF00A094FF0E3
:10261000150A4FF01F0BCDF808B00FF2300BDBF8A6
:1026200000B0CDF804B00FF2280BDBF800B0CDF805
:1026300000B00DF1040B1BF803B081F800B01DF8D9
:1026400004B082F800B0BDE8FE8F00002F3F4E00BE
:10265000050F1A0003468B4201DA08467047934281
:1026600001DD1046FAE71846F8E700002DE9F041D1
:1026700004460D46944201DC9D4201DDBDE8F08137
:10268000214628E0284622E006464FEAE07800EBA3
:102690005878C8F3C7074FEAE07800EB58784FEA5C
:1026A000E808A0EBC80808F0FF0C0D4E06EB810609
:1026B000F65D4FF0010808FA0CF826EA0806DFF884
:1026C000208008EB810808F80760461CF0B29842A9
:1026D000DADD481CC1B29142D4DD00BFCEE7000074
:1026E000140000242DE9F05F2824002556261F271A
:1026F0004FF037084FF047094FF00A0A4FF0150B1B
:1027000000225621282000F074F80A2256212820A1
:1027100000F06FF815225621282000F06AF81F22D9
:102720005621282000F065F81F220021282000F003
:1027300033F91F220021372000F02EF91F2200213B
:10274000472000F029F91F220021562000F024F92B
:10275000BDE8F09F2DE9F04106460F4614460025DE
:1027600011E03A1B2A44D1B2321B2A44D0B2FEF700
:1027700097F83A19521BD1B2321B2A44D0B2FEF755
:102780008FF8681CC5B26006000EA842E9DABDE801
:10279000F0812DE9F047804689461746784244B2D9
:1027A00022E02046FFF712FF381A45B235B908EB90
:1027B0000401C8B24946FEF773F813E0684246B216
:1027C0000DE0EE4201D0AE4207D109EB0602D1B2D4
:1027D00008EB0402D0B2FEF763F8701C46B2AE42BA
:1027E000EFDD00BF601C44B278B28442D9DDBDE8A1
:1027F000F0872DE9F04105460E4617462C4605E0C8
:1028000039462046FEF74CF8601CC4B2B442F7DDEE
:10281000BDE8F0812DE9FF5F04460D4616461F46D0
:10282000A64201DD301B00E0A01B0FFA80F8B44285
:1028300001DA012001E04FF0FF300390AF4201DDEB
:10284000781B00E0E81B40420FFA80F9BD4201DA34
:10285000012001E04FF0FF30029008EB09000FFA71
:1028600080FAA346019527E0019AD1B20BF0FF0050
:1028700000F068F9B34503D10198B84200D11CE0DB
:102880004FEA4A0000B200900098484507DB0AEB87
:1028900009000FFA80FA039858440FFA80FB009859
:1028A000404508DC0AEB08000FFA80FADDE9010177
:1028B000084400B2019000BFD6E700BFBDE8FF9F0B
:1028C0002DE9FC5F06460F4690469946DDE90CABC4
:1028D00006EB0A0108B27F220021FFF7BBFE044687
:1028E00007EB0B0108B21F220021FFF7B3FE019096
:1028F00008EB0A0108B27F220021FFF7ABFE054674
:1029000009EB0B0108B21F220021FFF7A3FE009084
:10291000AC4207DD20462C4605460199009A0192FB
:10292000009100BF2A462046DDE90031FFF772FF23
:10293000BDE8FC9FF8B504460D4608266A270C231F
:1029400013A204210820FEF753F90C20022322468B
:10295000122100900520FEF711F90C234F221221BD
:102960001720FEF78DF80C230AA204216A20FEF737
:102970003FF90C2002232A46122100906420FEF722
:10298000FDF80C23582212217620FEF779F8F8BDC5
:10299000594F5500414900002DE9F04107460D46C9
:1029A00016462C4605E021463846FDF779FF601CA7
:1029B000C4B2B442F7DDBDE8F08100002DE9FF4F5D
:1029C00085B0044613AD95E8E003464911F81400BC
:1029D00003AA04A9FFF702FE424901EB440148782B
:1029E00001AA02A9FFF7FAFD002028803080388074
:1029F000A8F80000A9F80000032C08DA01202880BC
:102A00000020308038800120A8F8000025E0062C46
:102A10000CDA0020288001203080801E38800020C1
:102A2000A8F800000120A9F8000016E0062C0AD141
:102A3000012028803080801E38800120A8F8000006
:102A4000A9F8000009E001202880801E30800120C4
:102A50003880A8F80000A9F800009DF808009DF84B
:102A60001010884201DD012009E09DF808009DF862
:102A70001010884202DA4FF0FF3000E0002082465A
:102A80009DF804009DF80C10884201DD012009E04A
:102A90009DF804009DF80C10884202DA4FF0FF30D8
:102AA00000E0002083469DF81000A0EB8A0001B2F0
:102AB000069801809DF80C00A0EB8B0001B20798EE
:102AC00001809DF8080000EB8A0001B2089801809F
:102AD0009DF8040000EB8B0001B21298018009B050
:102AE000BDE8F08F8D4E00082DE9F04704460F46F3
:102AF0009046994645461FE005F1B001C8B2002155
:102B0000FEF797F8102141EA14100021FEF791F822
:102B100004F00F000021FEF78CF8264608E0084973
:102B200001EB8601485D0121FEF783F8701CC6B2F7
:102B3000BE42F4DD681CC5B24D45DDDDBDE8F08761
:102B40001400002430B57F2801DC1F2900DD30BDD2
:102B50000B46CD1701EB5575C5F3C702CD1701EB39
:102B60005575ED10A1EBC505ECB2074B03EB8003E7
:102B70009B5C0125A540EDB22B43034D05EB800581
:102B8000AB5400BFE3E70000140000242DE9F04738
:102B900004460D460027B846B94600263349601A58
:102BA0008C4235D00CDC32482044C0B1B0F5806F87
:102BB0001AD0B0F5006F1CD0B0F5406F32D11DE0D7
:102BC000B0F5806F29D0B0F5184F03D0B0F51C4F89
:102BD00028D118E01020FEF76FFF074623E01120F0
:102BE000FEF76AFF07461EE01220FEF765FF074664
:102BF00019E00220FEF760FF074614E00220FEF70E
:102C00005BFF07460FE01320FEF756FF07460AE07A
:102C10000220FEF751FF074605E00220FEF74CFFB9
:102C2000074600E000BF00BF206800F4004070B11C
:102C3000780000EB5500B0FBF5F64FF6F07006EAB1
:102C40000008C6F3420948EA0900E0600CE007EB1F
:102C50005500B0FBF5F64FF6F07006EA000806F0F6
:102C60000F0948EA0900E060BDE8F08700780040FD
:102C700000BCFFBF0146486AC0F30800704700006F
:102C800010B504463349601A8C424DD00CDC3248F2
:102C90002044E0B1B0F5806F22D0B0F5006F28D0AD
:102CA000B0F5406F52D12DE0B0F5806F45D0B0F552
:102CB000184F03D0B0F51C4F48D12CE040F604105B
:102CC000FFF77AFB40F60410FFF764FB3FE040F6A5
:102CD0001100FFF771FB40F61100FFF75BFB36E0D8
:102CE00040F61200FFF768FB40F61200FFF752FBB8
:102CF0002DE040F61300FFF75FFB40F61300FFF7EF
:102D000049FB24E040F61400FFF756FB40F61400A0
:102D1000FFF740FB1BE040F60510FFF74DFB40F6C8
:102D20000510FFF737FB12E040F61E00FFF744FBEB
:102D300040F61E00FFF72EFB09E040F61F00FFF7EC
:102D40003BFB40F61F00FFF725FB00E000BF00BF84
:102D500010BD00000078004000BCFFBF016841F0DA
:102D600001010160704710B500EB9112126801F08B
:102D70001F040123A3401A4300EB91131A6010BDF6
:102D800010B5134A914206D1D0F8D02042F08062AB
:102D9000C0F8D0201AE00F4A914206D1D0F8D020D6
:102DA00022F40042C0F8D02010E00B4A914206D134
:102DB000D0F8D02022F48002C0F8D02006E0026AC9
:102DC000C1F304440123A3401A43026210BD000072
:102DD0001F34183409340F341B34163470B50246CE
:102DE00000230024C1F38910105801F01F060125AB
:102DF000B54000EA050302EB91500068C1F30446B8
:102E00000125B54000EA050414B10BB1012070BDE5
:102E10000020FCE7026822F001020260026822F44E
:102E2000C062026002680A4302607047026822F0D2
:102E30000402026002680A4302607047026822F0DE
:102E400001020260426822F44052426042680A4332
:102E500042607047026822F00802026002680A437A
:102E600002607047026822F001020260026822F0EC
:102E70001022026002680A430260704700000000EE
:102E800000000000002F00000000070007000014F1
:102E90007F147F1400242A7F2A12006264081323FF
:102EA00000364955225000000503000000001C2296
:102EB0004100000041221C000014083E08140008D4
:102EC000083E0808000000A0600000080808080884
:102ED000000060600000002010080402003E51491C
:102EE000453E0000427F40000042615149460021BA
:102EF00041454B31001814127F10002745454539D4
:102F0000003C4A494930000171090503003649492E
:102F1000493600064949291E0000363600000000E7
:102F20005636000000081422410000141414141432
:102F300000004122140800020151090600324959DB
:102F4000513E007C1211127C007F49494936003EF7
:102F500041414122007F4141221C007F49494941B2
:102F6000007F09090901003E4149497A007F0808AC
:102F7000087F0000417F4100002040413F01007F69
:102F800008142241007F40404040007F020C027F35
:102F9000007F0408107F003E4141413E007F090947
:102FA0000906003E4151215E007F0919294600466D
:102FB000494949310001017F0101003F4040403F44
:102FC000001F2040201F003F4038403F006314088E
:102FD0001463000708700807006151494543000069
:102FE0007F41410000552A552A55000041417F008C
:102FF0000004020102040040404040400000010281
:103000000400002054545478007F48444438003869
:103010004444442000384444487F003854545418F1
:1030200000087E0901020018A4A4A47C007F080403
:1030300004780000447D4000004080847D00007FD3
:10304000102844000000417F4000007C04180478F0
:10305000007C0804047800384444443800FC2424EC
:1030600024180018242418FC007C080404080048D4
:103070005454542000043F444020003C4040207CF5
:10308000001C2040201C003C4030403C00442810E4
:103090002844001CA0A0A07C004464544C44141498
:1030A00014141414000000000000000000000000D0
:1030B00000000000000000F80000000000000033E5
:1030C0003000000000100C06100C0600000000008C
:1030D0000000000040C07840C0784000043F040475
:1030E0003F040400007088FC08300000001820FF36
:1030F000211E0000F008F000E018000000211C0371
:103100001E211E0000F00888700000001E212324EC
:103110001927211010160E0000000000000000000A
:1031200000000000000000E018040200000000079A
:103130001820400000020418E000000000402018A1
:1031400007000000404080F0804040000202010F74
:1031500001020200000000F0000000000101011F58
:1031600001010100000000000000000080B07000BC
:10317000000000000000000000000000000101014C
:1031800001010101000000000000000000303000DB
:1031900000000000000000008060180400601806B5
:1031A0000100000000E010080810E000000F1020EF
:1031B00020100F00001010F8000000000020203F39
:1031C00020200000007008080888700000302824C3
:1031D0002221300000300888884830000018202064
:1031E00020110E000000C02010F800000007042489
:1031F000243F240000F808888808080000192120CE
:1032000020110E0000E0108888180000000F112027
:1032100020110E0000380808C83808000000003FE0
:10322000000000000070880808887000001C22213F
:1032300021221C0000E010080810E00000003122EC
:1032400022110F00000000C0C0000000000000308C
:1032500030000000000000800000000000008060DE
:10326000000000000000804020100800000102045F
:103270000810200040404040404040000404040446
:103280000404040000081020408000000020100802
:1032900004020100007048080808F0000000003037
:1032A00036010000C030C828E810E00007182724C5
:1032B00023140B000000C038E0000000203C230273
:1032C0000227382008F8888888700000203F2020D6
:1032D00020110E00C0300808080838000718202008
:1032E0002010080008F808080810E000203F2020FF
:1032F00020100F0008F88888E8081000203F2020E0
:103300002320180008F88888E8081000203F2000D3
:1033100003000000C030080808380000071820200B
:10332000221E020008F808000008F808203F2101CA
:1033300001213F20000808F8080800000020203F75
:103340002020000000000808F8080800C0808080E5
:103350007F00000008F888C028180800203F2001DE
:103360002638200008F8080000000000203F202038
:103370002020300008F8F800F8F80800203F003F4F
:10338000003F200008F830C00008F808203F200067
:1033900007183F00E01008080810E0000F10202078
:1033A00020100F0008F808080808F000203F21014D
:1033B00001010000E01008080810E0000F182424A4
:1033C00038504F0008F8888888887000203F200017
:1033D000030C3020007088080808380000382021CD
:1033E00021221C00180808F8080818000000203FD7
:1033F0002000000008F808000008F808001F20203E
:1034000020201F000878880000C83808000007380E
:103410000E010000F80800F80008F800033C07005F
:10342000073C0300081868808068180820302C03C7
:10343000032C30200838C800C83808000000203F9E
:103440002000000010080808C8380800203826218D
:1034500020201800000000FE020202000000007F91
:1034600040404000000C30C000000000000000019F
:103470000638C00000020202FE000000004040408A
:103480007F000000000004020202040000000000AF
:10349000000000000000000000000000808080802C
:1034A0008080808000020204000000000000000014
:1034B00000000000000080808080000000192422AD
:1034C00022223F2008F8008080000000003F1120E9
:1034D00020110E000000008080800000000E1120EE
:1034E00020201100000000808088F800000E1120CC
:1034F00020103F200000808080800000001F2222DA
:1035000022221300008080F0888888180020203F45
:10351000202000000000808080808000006B949458
:103520009493600008F8008080800000203F210014
:1035300000203F2000809898000000000020203FDD
:1035400020200000000000809898000000C08080CB
:10355000807F000008F8000080808000203F240267
:103560002D302000000808F8000000000020203F57
:10357000202000008080808080808000203F20000C
:103580003F20003F8080008080800000203F21009D
:1035900000203F200000808080800000001F20204D
:1035A00020201F00808000808000000080FFA1207C
:1035B00020110E000000008080808000000E11208D
:1035C00020A0FF80808080008080800020203F211C
:1035D00020000100000080808080800000332424CF
:1035E00024241900008080E0808000000000001F7B
:1035F000202000008080000000808000001F20202C
:1036000020103F20808080000080808000010E30EC
:103610000806010080800080008080800F300C034D
:103620000C300F0000808000808080000020312E50
:103630000E312000808080000080808080818E702C
:103640001806010000808080808080000021302CDE
:103650002221300000000000807C020200000000F7
:10366000003F404000000000FF000000000000009C
:10367000FF0000000002027C800000000040403F8C
:103680000000000000060101020204040000000026
:10369000000000000000000000000000000000002A
:1036A000000000003F40000000000000000030006B
:1036B000400030004000000009000BC03D000BC07E
:1036C0003D00090018C024407FE022403180000006
:1036D000180024C01B000D803240018003801C4074
:1036E00027401C80074000401000600000000000E0
:1036F000000000000000000000001F80204040206B
:103700000000402020401F8000000000090006004B
:103710001F80060009000000040004003F80040030
:103720000400000000100060000000000000000025
:103730000400040004000400040000000000004035
:103740000000000000000000002001C0060038005A
:10375000400000001F802040204020401F800000CB
:10376000000010403FC000400000000018C0214091
:103770002240244018400000108020402440244073
:103780001B80000002000D0011003FC0014000003E
:103790003C80244024402440238000001F8024409B
:1037A00024403440038000003000200027C038004F
:1037B000200000001B802440244024401B80000087
:1037C0001C0022C0224022401F8000000000000098
:1037D000084000000000000000000000046000003D
:1037E00000000000000004000A001100208040409A
:1037F000090009000900090009000000000040401C
:10380000208011000A00040018002000234024003A
:10381000180000001F802040274029401F40000062
:10382000004007C039000F0001C0004020403FC0E9
:10383000244024401B8000001F8020402040204066
:103840003080000020403FC0204020401F8000000A
:1038500020403FC024402E4030C0000020403FC0E8
:1038600024402E00300000000F0010802040224035
:103870003380020020403FC0040004003FC02040CD
:10388000204020403FC02040204000000060202019
:1038900020203FC02000200020403FC024400B00DB
:1038A00030C0204020403FC020400040004000C0C9
:1038B0003FC03C0003C03C003FC0000020403FC070
:1038C0000C4023003FC020001F80204020402040AB
:1038D0001F80000020403FC024402400180000004A
:1038E0001F802140214020E01FA0000020403FC059
:1038F0002440260019C0004018C024402440224023
:1039000031800000300020403FC0204030000000E7
:1039100020003F80004000403F80200020003E000B
:1039200001C0070038002000380007C03C0007C075
:1039300038000000204039C0060039C02040000097
:103940002000384007C0384020000000304021C02F
:103950002640384020C00000000000007FE04020EA
:1039600040200000000070000C00038000400000B8
:103970000000402040207FE0000000000000200008
:103980004000200000000000001000100010001097
:1039900000100010000000004000000000000000C7
:1039A000000002800540054003C0004020003FC0E9
:1039B00004400440038000000000038004400440F1
:1039C0000640000000000380044024403FC0004047
:1039D0000000038005400540034000000000044053
:1039E0001FC0244024402000000002E00550055084
:1039F0000650042020403FC00440040003C00040A3
:103A00000000044027C0004000000000001000102B
:103A1000041027E00000000020403FC001400700E4
:103A200004C00440204020403FC00040004000004F
:103A300007C0040007C0040003C00000044007C022
:103A40000440040003C00040000003800440044020
:103A500003800000041007F00450044003800000BD
:103A6000000003800440045007F00010044007C029
:103A7000024004000400000000000640054005402C
:103A800004C00000000004001F800440004000004B
:103A9000040007800040044007C000400400070005
:103AA00004C0018006000400060001C0070001C038
:103AB00006000000044006C0010006C004400000EB
:103AC0000410071004E00180060004000000044018
:103AD00005C00640044000000000000004007BE038
:103AE00040200000000000000000FFF00000000087
:103AF000000040207BE00400000000004000800047
:103B000040002000200040000000000000000000F5
:103B100000000000000000000000000000001FCCBA
:103B2000000C0000000000000000080030006000F1
:103B30000800300060000000022003FC1E2002206C
:103B400003FC1E200220000000000E1811043FFF9D
:103B500010840C78000000000F0010840F3800C0A3
:103B6000077818840078000000780F8410C41124AE
:103B70000E9800E40084000808006800700000004F
:103B8000000000000000000000000000000007E04E
:103B900018182004400200000000400220041818F9
:103BA00007E00000000000000240024001800FF02A
:103BB00001800240024000000080008000800FF879
:103BC00000800080008000000001000D000E000059
:103BD0000000000000000000000000800080008065
:103BE00000800080008000800000000C000C0000BD
:103BF0000000000000000000000000060018006047
:103C00000180060018002000000007F008081004DA
:103C10001004080807F000000000080408041FFC56
:103C2000000400040000000000000E0C101410241A
:103C3000104411840E0C000000000C181004110434
:103C4000110412880C700000000000E0032004241E
:103C500008241FFC0024000000001F981084110499
:103C60001104108810700000000007F0088811048B
:103C7000110418880070000000001C00100010FCE7
:103C800013001C001000000000000E3811441084C6
:103C9000108411440E38000000000700088C104406
:103CA0001044088807F00000000000000000030C2A
:103CB000030C0000000000000000000000010106ED
:103CC0000000000000000000000000800140022011
:103CD0000410080810040000022002200220022024
:103CE0000220022002200000000010040808041036
:103CF000022001400080000000000E001200100CA5
:103D0000106C10800F00000003E00C1813E4142462
:103D100017C4082807D000000004003C03C41C405E
:103D2000074000E4001C000410041FFC11041104EF
:103D300011040E880070000003E00C181004100439
:103D4000100410081C10000010041FFC10041004C4
:103D50001004080807F0000010041FFC11041104EF
:103D600017C410040818000010041FFC11041100EF
:103D700017C010000800000003E00C181004100425
:103D800010441C780040000010041FFC10840080C8
:103D9000008010841FFC10040000100410041FFC9D
:103DA00010041004000000000003000110011001C5
:103DB0001FFE10001000000010041FFC11040380FF
:103DC0001464181C1004000010041FFC10040004EC
:103DD00000040004000C000010041FFC1F0000FC85
:103DE0001F001FFC1004000010041FFC0C04030043
:103DF00000E010181FFC100007F008081004100461
:103E00001004080807F0000010041FFC1084108044
:103E1000108010800F00000007F0081810241024F4
:103E2000101C080A07F2000010041FFC1104110006
:103E300011C011300E0C000400000E1C110410847F
:103E4000108410441C3800001800100010041FFCDF
:103E5000100410001800000010001FF810040004E7
:103E6000000410041FF8100010001E0011E0001CD8
:103E7000007013801C0010001FC0103C00E01F00E9
:103E800000E0103C1FC000001004180C163401C0E4
:103E900001C01634180C100410001C00130400FCA0
:103EA00013041C00100000000804101C106410848F
:103EB00013041C04101800000000000000007FFE26
:103EC0004002400240020000000030000C0003806D
:103ED0000060001C0003000000004002400240029D
:103EE0007FFE0000000000000000000020004000F5
:103EF000400040002000000000010001000100011E
:103F0000000100010001000100004000400020000D
:103F1000000000000000000000000098012401449F
:103F20000144014400FC000410001FFC008801044F
:103F30000104008800700000000000700088010487
:103F400001040104008800000000007000880104E2
:103F5000010411081FFC0004000000F801440144A2
:103F60000144014400C800000000010401040FFCEA
:103F70001104110411001800000000D601290129C4
:103F8000012901C90106000010041FFC0084010082
:103F90000100010400FC000400000104190419FCE4
:103FA0000004000400000000000000030001010103
:103FB000190119FE0000000010041FFC002400403D
:103FC00001B4010C010400000000100410041FFCE7
:103FD0000004000400000000010401FC01040100D1
:103FE00001FC0104010000FC010401FC008401004B
:103FF0000100010400FC0004000000F801040104B9
:104000000104010400F80000010101FF0085010422
:1040100001040088007000000000007000880104A6
:104020000104010501FF00010104010401FC0084F9
:104030000104010001800000000000CC01240124E3
:10404000012401240198000000000100010007F88C
:104050000104010400000000010001F80004000454
:104060000004010801FC0004010001800170000C43
:10407000001001600180010001F0010C003001C05E
:104080000030010C01F0010000000104018C0074FB
:104090000170018C01040000010101810171000E19
:1040A000001801600180010000000184010C01344E
:1040B00001440184010C0000000000000000000029
:1040C00001003EFC40024002000000000000000031
:1040D000FFFF0000000000000000400240023EFC24
:1040E000010000000000000000006000800080006F
:1040F0004000400020002000000000000000000000
:1041000000000000000000000000000000000000AF
:10411000000000000000000000000000000000009F
:1041200000000000000000000000000F80380FFEBB
:10413000380F803800000000000000000000000080
:104140000000000000000100000600000C00003824
:1041500000003100000600000C00003800003000B4
:10416000000000000000000061800067F807F9808F
:104170000061800061800061800061800067F80755
:10418000F98000618000000000000000000001C014
:10419000E003E0F00630080418081FFFFE040E08D4
:1041A0000787F00381E000000000000001F0000636
:1041B0000C00040408060C7001F9C0000E00003B5E
:1041C000E000EC18070808040C180003E0000000E9
:1041D0000001E00007F003F818041C0804170807A2
:1041E000E1D003C0E00023B0003C0800200800003C
:1041F000100000000000000100003100003200004B
:104200001C00000000000000000000000000000092
:10421000000000000000000000000000000000009E
:1042200000000000000000007F0001FFC00780F0D8
:104230000C00181000042000020000000000002004
:1042400000021000040C00180780F001FFC0007F7E
:10425000000000000000000000000000000000005E
:10426000000000004200006600006600003C000004
:10427000180003FFC0001800003C00006600006644
:1042800000004200000000000800000800000800D4
:1042900000080000080001FFC0000800000800003E
:1042A00008000008000008000000000000010000F5
:1042B0003100003200001C0000000000000000007F
:1042C00000000000000000000000000000000000EE
:1042D00008000008000008000008000008000008AE
:1042E00000000800000800000800000800000000AE
:1042F0000000000000000000380000380000380016
:1043000000000000000000000000000000000000AD
:104310000000000000000000000600001C0000700B
:10432000000180000E0000380000C0000700001CE3
:104330000000300000000000000000007F8001FF4E
:10434000E003807006001804000804000806001846
:1043500003807001FFE0007F80000000000000008B
:10436000000001000801000801000803FFF807FF32
:10437000F80000080000080000080000000000002D
:1043800000000001C03802C058040098040118045D
:104390000218040418061C1803F81801E0F80000BD
:1043A0000000000000000001C0E003C0F0040008AD
:1043B00004080804080806180803F41801E7F000C8
:1043C00001E0000000000000000000000300000DFC
:1043D0000000110000610000810803010807FFF8D8
:1043E0000FFFF800010800010800000000000000B5
:1043F00000E007FCD00608080610080610080610A2
:1044000008061838060FF00607C00000000000007C
:10441000000000003F8001FFE00384300208180420
:104420001008041008041008071810030FF0000704
:10443000C000000000000000000003C000070000F2
:104440000600000600F80607F806180006E0000758
:10445000000006000000000000000001E1E003F79A
:10446000F0063410041808041808040C08040C089A
:1044700006161803F3F001C1E00000000000000080
:10448000F80003FC300306380402080402080402A2
:10449000080404100308F001FFC0007F00000000C2
:1044A000000000000000000000000000000000000C
:1044B0007038007038007038000000000000000004
:1044C00000000000000000000000000000000000EC
:1044D00000000000301A00301C0000000000000046
:1044E00000000000000000000000000000000008C4
:1044F0000000140000220000410000808001004004
:104500000200200400100800080000000000000065
:1045100021000021000021000021000021000021D5
:104520000000210000210000210000210000000007
:104530000000000000000800080400100200200134
:1045400000400080800041000022000014000008AC
:104550000000000000000003C00004C000040000D0
:10456000080038080F380808380810000C30000719
:10457000E00003C000000000000000003F8000FFDA
:10458000E0038070020F1006708804C0880483085E
:10459000047F8802C09003012000FE400000080054
:1045A00000180001F8003E0801C20007020007E2FF
:1045B0000000FE00001FC80001F8000038000008DD
:1045C00004000807FFF807FFF804080804080804B7
:1045D000080804080806180803F41801E7F00001A9
:1045E000E0000000000000003F8001FFE003807059
:1045F0000200180400080400080400080400100663
:1046000000200780C000000004000807FFF807FF33
:10461000F804000804000804000804001802001050
:1046200003807001FFE0007F8000000004000807A5
:10463000FFF807FFF804080804080804080804083D
:1046400008043E080400080600180100600000008D
:1046500004000807FFF807FFF8040808040800042E
:104660000800040800043E00060000060000018067
:1046700000000000000000003F8001FFE0038070A8
:104680000600180400080402080402080203F007E8
:1046900083F000020000020004000807FFF807FF93
:1046A000F8040808000800000800000800000800DE
:1046B00004080807FFF807FFF804000800000000DE
:1046C000000004000804000804000807FFF807FFC2
:1046D000F8040008040008040008000000000000BE
:1046E00000000000000600000700000104000104B3
:1046F000000104000307FFFE07FFFC0400000400A4
:104700000004000004000807FFF807FFF8040C0885
:10471000001800003E0004C7800503C80600F80426
:10472000003804001800000804000807FFF807FF1D
:10473000F804000800000800000800000800000855
:1047400000000800001800006000000004000807D6
:10475000FFF807800807FC00007FC00003F800078F
:10476000C000780007800807FFF807FFF80400087A
:1047700004000807FFF807000803C00000E000007D
:104780003800001E000007000001C00400F007FF11
:10479000F8040000000000007F8001FFE00380704B
:1047A0000600180400080400080600180300300181
:1047B000FFE0007F8000000004000807FFF807FF0B
:1047C000F8040408040400040400040400040400C1
:1047D000060C0003F80001F00000000000000000DB
:1047E0007F8001FFE00380700600880400880400D9
:1047F000C806003C03003E01FFE6007F8400000085
:1048000004000807FFF807FFF8040808040800047C
:104810000C00040F00040BC00610F003F03801E098
:104820000800000800000001E0F803F03006301036
:10483000041808041808040C08040C0802061802DE
:1048400007F00781E000000001800006000004007E
:104850000004000004000807FFF807FFF804000840
:1048600004000004000006000001800004000007AE
:10487000FFE007FFF0040018000008000008000037
:104880000800000800000804001007FFE004000012
:1048900004000006000007E00007FE00041FE0001F
:1048A00001F80000380001E0043E0007C0000600E7
:1048B0000004000004000007E00007FFC0041FF828
:1048C0000007C007F80007FF80043FF80007C00496
:1048D000F8000700000400000000000400080600C3
:1048E0001807C07805F1C8003E00001F800463E887
:1048F0000780F80600180400080000000400000605
:10490000000007800007E008047C08001FF800078B
:10491000F800180804E00807000006000004000082
:104920000000000100080600380400F80403E80451
:104930000F08047C0805F00807C0080700180400E9
:104940006000000000000000000000000000000007
:104950000000003FFFFE2000022000022000022095
:10496000000220000200000000000000000008001B
:104970000007000000C0000038000006000001C071
:1049800000003000000E00000100000000000000E8
:10499000000020000220000220000220000220006F
:1049A000023FFFFE000000000000000000000000C9
:1049B00000000000000000000008000010000030AF
:1049C000000020000030000010000008000000007F
:1049D00000000000000001000001000001000001D3
:1049E00000000100000100000100000100000100C2
:1049F00000010000010000010000000000000000B4
:104A00000020000020000010000010000000000046
:104A10000000000000000000000000000000000096
:104A200000F00019F8001B180022080026080024D6
:104A300008002410003FF8001FF8000008000018CC
:104A400000000004000007FFF80FFFF00018180036
:104A50001008002008002008003018001FF0000F88
:104A6000C00000000000000007C0001FF000183068
:104A7000002008002008002008003C08001C10004E
:104A800000600000000000000000000007C0001FE0
:104A9000F00038180020080020080020080410103A
:104AA00007FFF80FFFF000001000000000000000FA
:104AB00000000007C0001FF0001230002218002282
:104AC00008002208003208001E10000E200000001E
:104AD00000000000200000200800200801FFF8036B
:104AE000FFF806200804200804200807200003001F
:104AF0000000000000000000000E000E6E001FF31A
:104B00000031B10020B10020B1003191001F13002D
:104B10002E1E00200E00300000000004000807FFD9
:104B2000F80FFFF800100800200000200000200807
:104B3000003FF8001FF8000008000000000000001F
:104B40000000002008002008002008063FF8063F6B
:104B5000F800000800000800000800000000000045
:104B6000000000000000000003000003002001001E
:104B70002001002003063FFE063FFC00000000006D
:104B80000000000000000004000807FFF80FFFF815
:104B9000000188000300002FC00038F80020380012
:104BA00020080000080000000000000000000400D1
:104BB0000804000804000807FFF80FFFF8000008C9
:104BC00000000800000800000000000000200800AD
:104BD0003FF8003FF8001008002000003FF8003FB9
:104BE000F8001008002000003FF8003FF80000081F
:104BF000000000002008003FF8003FF80010080007
:104C00001000002000002008003FF8001FF80000FE
:104C1000080000000000000007C0000FF00018307E
:104C2000003008002008002008003008001830007C
:104C30000FF00007C0000000000000002001003F4E
:104C4000FF003FFF0010110020090020080020088D
:104C5000003038001FF0000FC0000000000000000E
:104C600007C0001FF00038180020080020080020AE
:104C700009001011001FFF003FFF000001000000AD
:104C8000002008002008002008003FF8003FF8003E
:104C90000808001008002008002000003000003044
:104CA00000000000000000000000000C78001E184A
:104CB0000033080023080021080021880021980003
:104CC00030F00038600000000000000020000020EC
:104CD0000000200000FFF003FFF80020080020087B
:104CE000002008000030000000000000000000006C
:104CF0002000003FF0007FF80000180000080000CE
:104D000008002010003FF8007FF0000010000000B5
:104D1000000000002000003000003C00003F800048
:104D200023F0000078000070002380003C00003079
:104D300000002000002000003C00003FE00023F8BD
:104D40000000E0002700003E00003FE00021F800E6
:104D500001E0003E000020000000000020080020CC
:104D600008003838003E680027800003C8002CF88F
:104D70000038380020180020080000000000000063
:104D80002000003003003C01003F830023EC0000C2
:104D900070002380003C0000200000200000000084
:104DA0000000000000000038080020380020F80053
:104DB00023E8002F88003E08003808002018000073
:104DC0007000000000000000000000000000000073
:104DD0000000000008000014001FF7FC300006204F
:104DE00000020000000000000000000000000000C1
:104DF00000000000000000000000FFFFFF000000B6
:104E000000000000000000000000000000000000A2
:104E100000002000023000061FF7FC00140000080C
:104E20000000000000000000000000000000000082
:104E3000000000180000600000400000400000205A
:104E400000001000000800000400000400000C0036
:104E50000010000000010203040506070800030615
:104E60000104070205080004080204060400020603
:104E700008010305070001020304050607080003F3
:104E800006010407020508000408020406000203E4
:104E900005060800060107020800080206000000D7
:104EA000C04E000800000024140000006812000832
:104EB000D44E0008140000244C130000781200089F
:104EC0000000000000000000000000000046C323B6
:044ED00000000000DE
:04000005080003A547
:00000001FF
